:020000040800F2
:100000000050002051010008BD010008BD0100089A
:10001000BD010008BD010008BD010008BD010008C8
:10002000BD010008BD010008BD010008BD010008B8
:10003000BD010008BD010008BD010008BD010008A8
:10004000BD010008BD010008BD010008BD01000898
:10005000BD010008BD010008BD010008BD01000888
:10006000BD010008BD010008BD010008BD01000878
:10007000BD010008BD010008BD010008BD01000868
:10008000BD010008BD010008BD010008BD01000858
:10009000BD010008BD010008BD010008BD01000848
:1000A000BD010008BD010008BD010008BD01000838
:1000B000BD010008BD010008BD010008BD01000828
:1000C000BD010008BD010008BD010008BD01000818
:1000D000BD010008BD010008BD010008BD01000808
:1000E000BD010008BD010008BD010008BD010008F8
:1000F000BD010008BD010008BD010008BD010008E8
:10010000BD010008BD010008BD010008BD010008D7
:10011000BD010008BD010008BD010008BD010008C7
:10012000BD010008BD010008BD010008BD010008B7
:10013000BD010008BD010008BD010008BD010008A7
:10014000BD010008BD010008BD010008BD01000897
:1001500080B582B000AF134B7B60134B3B60134BF9
:100160005B69124A43F40073536107E03A68531C19
:100170003B607B68591C796012781A707B680C4A66
:100180009342F3D30B4B7B6005E07B6800221A702F
:100190007B6801337B607B68074A9342F5D300F0AC
:1001A00010F8FEE700000020C801000800ED00E0A4
:1001B00000000020000000200000002080B400AFFC
:0801C000FEE780B400AFFEE78A
:04000005080001519D
:00000001FF
